{
  "contractName": "SimpleStorage",
  "abi": [
    {
      "inputs": [
        {
          "internalType": "uint256",
          "name": "_number",
          "type": "uint256"
        }
      ],
      "stateMutability": "payable",
      "type": "constructor",
      "payable": true
    },
    {
      "inputs": [
        {
          "internalType": "uint256",
          "name": "x",
          "type": "uint256"
        }
      ],
      "name": "set",
      "outputs": [],
      "stateMutability": "nonpayable",
      "type": "function"
    },
    {
      "inputs": [],
      "name": "get",
      "outputs": [
        {
          "internalType": "uint256",
          "name": "",
          "type": "uint256"
        }
      ],
      "stateMutability": "view",
      "type": "function",
      "constant": true
    }
  ],
  "bytecode": "0x608060405260405161023138038061023183398181016040528101906100259190610088565b61003d81610043640100000000026401000000009004565b506100b5565b8060008190555050565b600080fd5b6000819050919050565b61006581610052565b811461007057600080fd5b50565b6000815190506100828161005c565b92915050565b60006020828403121561009e5761009d61004d565b5b60006100ac84828501610073565b91505092915050565b61016d806100c46000396000f3fe608060405234801561001057600080fd5b5060043610610053576000357c01000000000000000000000000000000000000000000000000000000009004806360fe47b1146100585780636d4ce63c14610074575b600080fd5b610072600480360381019061006d91906100e0565b610092565b005b61007c61009c565b604051610089919061011c565b60405180910390f35b8060008190555050565b60008054905090565b600080fd5b6000819050919050565b6100bd816100aa565b81146100c857600080fd5b50565b6000813590506100da816100b4565b92915050565b6000602082840312156100f6576100f56100a5565b5b6000610104848285016100cb565b91505092915050565b610116816100aa565b82525050565b6000602082019050610131600083018461010d565b9291505056fea2646970667358221220db8b8f0ec8cffe66c3f2cc3d4dedb7503c69b97690601c2c93a559889d3001e964736f6c634300080e0033",
  "immutableReferences": {},
  "source": "// SPDX-License-Identifier: MIT\npragma solidity ^0.8.14;\n \ncontract SimpleStorage {\n    constructor(uint _number) payable {\n        set(_number);\n    }\n\n    uint data;\n    \n    function set(uint x) public {\n        data = x;\n    }\n    \n    function get() public view returns (uint) {\n        return data;\n    }\n}",
  "sourcePath": "/home/vic/Web3/Developpeur-Ethereum-Template/4. Truffle & CI-CD/3.Truffle_Ropsten_deploy/contracts/SimpleStorage.sol",
  "compiler": {
    "name": "solc",
    "version": "0.8.14+commit.80d49f37.Emscripten.clang"
  },
  "schemaVersion": "3.4.7",
  "updatedAt": "2022-06-16T22:52:40.343Z",
  "networkType": "ethereum",
  "devdoc": {
    "kind": "dev",
    "methods": {},
    "version": 1
  },
  "userdoc": {
    "kind": "user",
    "methods": {},
    "version": 1
  }
}