{
  "contractName": "Voting",
  "abi": [
    {
      "anonymous": false,
      "inputs": [
        {
          "indexed": true,
          "internalType": "address",
          "name": "previousOwner",
          "type": "address"
        },
        {
          "indexed": true,
          "internalType": "address",
          "name": "newOwner",
          "type": "address"
        }
      ],
      "name": "OwnershipTransferred",
      "type": "event"
    },
    {
      "anonymous": false,
      "inputs": [
        {
          "indexed": false,
          "internalType": "uint256",
          "name": "_proposalId",
          "type": "uint256"
        }
      ],
      "name": "ProposalRegistered",
      "type": "event"
    },
    {
      "anonymous": false,
      "inputs": [
        {
          "indexed": false,
          "internalType": "address",
          "name": "_voter",
          "type": "address"
        },
        {
          "indexed": false,
          "internalType": "uint256",
          "name": "_proposalId",
          "type": "uint256"
        }
      ],
      "name": "Voted",
      "type": "event"
    },
    {
      "anonymous": false,
      "inputs": [
        {
          "indexed": false,
          "internalType": "address",
          "name": "_voterAddress",
          "type": "address"
        }
      ],
      "name": "VoterRegistered",
      "type": "event"
    },
    {
      "anonymous": false,
      "inputs": [
        {
          "indexed": false,
          "internalType": "enum Voting.WorkflowStatus",
          "name": "_previousStatus",
          "type": "uint8"
        },
        {
          "indexed": false,
          "internalType": "enum Voting.WorkflowStatus",
          "name": "_newStatus",
          "type": "uint8"
        }
      ],
      "name": "WorkflowStatusChange",
      "type": "event"
    },
    {
      "inputs": [],
      "name": "owner",
      "outputs": [
        {
          "internalType": "address",
          "name": "",
          "type": "address"
        }
      ],
      "stateMutability": "view",
      "type": "function",
      "constant": true
    },
    {
      "inputs": [
        {
          "internalType": "uint256",
          "name": "",
          "type": "uint256"
        }
      ],
      "name": "proposalsArray",
      "outputs": [
        {
          "internalType": "string",
          "name": "description",
          "type": "string"
        },
        {
          "internalType": "uint256",
          "name": "voteCount",
          "type": "uint256"
        }
      ],
      "stateMutability": "view",
      "type": "function",
      "constant": true
    },
    {
      "inputs": [],
      "name": "renounceOwnership",
      "outputs": [],
      "stateMutability": "nonpayable",
      "type": "function"
    },
    {
      "inputs": [
        {
          "internalType": "address",
          "name": "newOwner",
          "type": "address"
        }
      ],
      "name": "transferOwnership",
      "outputs": [],
      "stateMutability": "nonpayable",
      "type": "function"
    },
    {
      "inputs": [],
      "name": "workflowStatus",
      "outputs": [
        {
          "internalType": "enum Voting.WorkflowStatus",
          "name": "",
          "type": "uint8"
        }
      ],
      "stateMutability": "view",
      "type": "function",
      "constant": true
    },
    {
      "inputs": [
        {
          "internalType": "address",
          "name": "_addr",
          "type": "address"
        }
      ],
      "name": "getVoter",
      "outputs": [
        {
          "components": [
            {
              "internalType": "bool",
              "name": "isRegistered",
              "type": "bool"
            },
            {
              "internalType": "bool",
              "name": "hasVoted",
              "type": "bool"
            },
            {
              "internalType": "uint256",
              "name": "votedProposalId",
              "type": "uint256"
            }
          ],
          "internalType": "struct Voting.Voter",
          "name": "",
          "type": "tuple"
        }
      ],
      "stateMutability": "view",
      "type": "function",
      "constant": true
    },
    {
      "inputs": [
        {
          "internalType": "uint256",
          "name": "_id",
          "type": "uint256"
        }
      ],
      "name": "getOneProposal",
      "outputs": [
        {
          "components": [
            {
              "internalType": "string",
              "name": "description",
              "type": "string"
            },
            {
              "internalType": "uint256",
              "name": "voteCount",
              "type": "uint256"
            }
          ],
          "internalType": "struct Voting.Proposal",
          "name": "",
          "type": "tuple"
        }
      ],
      "stateMutability": "view",
      "type": "function",
      "constant": true
    },
    {
      "inputs": [],
      "name": "getWinner",
      "outputs": [
        {
          "components": [
            {
              "internalType": "string",
              "name": "description",
              "type": "string"
            },
            {
              "internalType": "uint256",
              "name": "voteCount",
              "type": "uint256"
            }
          ],
          "internalType": "struct Voting.Proposal",
          "name": "",
          "type": "tuple"
        }
      ],
      "stateMutability": "view",
      "type": "function",
      "constant": true
    },
    {
      "inputs": [
        {
          "internalType": "address",
          "name": "_addr",
          "type": "address"
        }
      ],
      "name": "addVoter",
      "outputs": [],
      "stateMutability": "nonpayable",
      "type": "function"
    },
    {
      "inputs": [
        {
          "internalType": "string",
          "name": "_desc",
          "type": "string"
        }
      ],
      "name": "addProposal",
      "outputs": [],
      "stateMutability": "nonpayable",
      "type": "function"
    },
    {
      "inputs": [
        {
          "internalType": "uint256",
          "name": "_id",
          "type": "uint256"
        }
      ],
      "name": "setVote",
      "outputs": [],
      "stateMutability": "nonpayable",
      "type": "function"
    },
    {
      "inputs": [],
      "name": "startProposalsRegistering",
      "outputs": [],
      "stateMutability": "nonpayable",
      "type": "function"
    },
    {
      "inputs": [],
      "name": "endProposalsRegistering",
      "outputs": [],
      "stateMutability": "nonpayable",
      "type": "function"
    },
    {
      "inputs": [],
      "name": "startVotingSession",
      "outputs": [],
      "stateMutability": "nonpayable",
      "type": "function"
    },
    {
      "inputs": [],
      "name": "endVotingSession",
      "outputs": [],
      "stateMutability": "nonpayable",
      "type": "function"
    },
    {
      "inputs": [],
      "name": "tallyVotes",
      "outputs": [],
      "stateMutability": "nonpayable",
      "type": "function"
    }
  ],
  "bytecode": "0x60806040523480156200001157600080fd5b5062000032620000266200003860201b60201c565b6200004060201b60201c565b62000104565b600033905090565b60008060009054906101000a900473ffffffffffffffffffffffffffffffffffffffff169050816000806101000a81548173ffffffffffffffffffffffffffffffffffffffff021916908373ffffffffffffffffffffffffffffffffffffffff1602179055508173ffffffffffffffffffffffffffffffffffffffff168173ffffffffffffffffffffffffffffffffffffffff167f8be0079c531659141344cd1fd0a4f28419497f9722a3daafe3b4186f6b6457e060405160405180910390a35050565b6127c580620001146000396000f3fe608060405234801561001057600080fd5b50600436106101005760003560e01c8063a7bfab1611610097578063ee74c67811610066578063ee74c67814610229578063f2fde38b14610233578063f4ab9adf1461024f578063f86c67791461026b57610100565b8063a7bfab16146101db578063c7038a4e146101e5578063c88af42f146101ef578063d4f50f98146101f957610100565b80638da5cb5b116100d35780638da5cb5b146101515780638e7ea5b21461016f578063a1edffa21461018d578063a2788cce146101ab57610100565b8063230796ae146101055780632fdae3c514610121578063378a21781461013d578063715018a614610147575b600080fd5b61011f600480360381019061011a9190611900565b61029c565b005b61013b60048036038101906101369190611a73565b610599565b005b6101456107dd565b005b61014f6109be565b005b610159610a46565b6040516101669190611afd565b60405180910390f35b610177610a6f565b6040516101849190611bec565b60405180910390f35b610195610bbc565b6040516101a29190611c85565b60405180910390f35b6101c560048036038101906101c09190611900565b610bcf565b6040516101d29190611bec565b60405180910390f35b6101e3610ca7565b005b6101ed610e01565b005b6101f7610f5b565b005b610213600480360381019061020e9190611ccc565b6110b5565b6040516102209190611d56565b60405180910390f35b6102316111dd565b005b61024d60048036038101906102489190611ccc565b611336565b005b61026960048036038101906102649190611ccc565b61142e565b005b61028560048036038101906102809190611900565b61164c565b604051610293929190611dca565b60405180910390f35b600560003373ffffffffffffffffffffffffffffffffffffffff1673ffffffffffffffffffffffffffffffffffffffff16815260200190815260200160002060000160009054906101000a900460ff1661032b576040517f08c379a000000000000000000000000000000000000000000000000000000000815260040161032290611e46565b60405180910390fd5b6003600581111561033f5761033e611c0e565b5b600360009054906101000a900460ff16600581111561036157610360611c0e565b5b146103a1576040517f08c379a000000000000000000000000000000000000000000000000000000000815260040161039890611ed8565b60405180910390fd5b60011515600560003373ffffffffffffffffffffffffffffffffffffffff1673ffffffffffffffffffffffffffffffffffffffff16815260200190815260200160002060000160019054906101000a900460ff1615151415610438576040517f08c379a000000000000000000000000000000000000000000000000000000000815260040161042f90611f44565b60405180910390fd5b600480549050811115610480576040517f08c379a000000000000000000000000000000000000000000000000000000000815260040161047790611fb0565b60405180910390fd5b80600560003373ffffffffffffffffffffffffffffffffffffffff1673ffffffffffffffffffffffffffffffffffffffff168152602001908152602001600020600101819055506001600560003373ffffffffffffffffffffffffffffffffffffffff1673ffffffffffffffffffffffffffffffffffffffff16815260200190815260200160002060000160016101000a81548160ff0219169083151502179055506004818154811061053657610535611fd0565b5b906000526020600020906002020160010160008154809291906105589061202e565b91905055507f4d99b957a2bc29a30ebd96a7be8e68fe50a3c701db28a91436490b7d53870ca4338260405161058e929190612077565b60405180910390a150565b600560003373ffffffffffffffffffffffffffffffffffffffff1673ffffffffffffffffffffffffffffffffffffffff16815260200190815260200160002060000160009054906101000a900460ff16610628576040517f08c379a000000000000000000000000000000000000000000000000000000000815260040161061f90611e46565b60405180910390fd5b6001600581111561063c5761063b611c0e565b5b600360009054906101000a900460ff16600581111561065e5761065d611c0e565b5b1461069e576040517f08c379a0000000000000000000000000000000000000000000000000000000008152600401610695906120ec565b60405180910390fd5b6040516020016106ad90612132565b60405160208183030381529060405280519060200120816040516020016106d49190612152565b60405160208183030381529060405280519060200120141561072b576040517f08c379a0000000000000000000000000000000000000000000000000000000008152600401610722906121e6565b60405180910390fd5b6107336117d4565b818160000181905250600481908060018154018082558091505060019003906000526020600020906002020160009091909190915060008201518160000190805190602001906107849291906117ee565b506020820151816001015550507f92e393e9b54e2f801d3ea4beb0c5e71a21cc34a5d34b77d0fb8a3aa1650dc18f60016004805490506107c49190612206565b6040516107d1919061223a565b60405180910390a15050565b6107e5611708565b73ffffffffffffffffffffffffffffffffffffffff16610803610a46565b73ffffffffffffffffffffffffffffffffffffffff1614610859576040517f08c379a0000000000000000000000000000000000000000000000000000000008152600401610850906122a1565b60405180910390fd5b6004600581111561086d5761086c611c0e565b5b600360009054906101000a900460ff16600581111561088f5761088e611c0e565b5b146108cf576040517f08c379a00000000000000000000000000000000000000000000000000000000081526004016108c690612333565b60405180910390fd5b600080600090505b60048054905081101561094d57600482815481106108f8576108f7611fd0565b5b9060005260206000209060020201600101546004828154811061091e5761091d611fd0565b5b906000526020600020906002020160010154111561093a578091505b80806109459061202e565b9150506108d7565b50806002819055506005600360006101000a81548160ff0219169083600581111561097b5761097a611c0e565b5b02179055507f0a97a4ee45751e2abf3e4fc8946939630b11b371ea8ae39ccdc3056e98f5cc3f600460056040516109b3929190612353565b60405180910390a150565b6109c6611708565b73ffffffffffffffffffffffffffffffffffffffff166109e4610a46565b73ffffffffffffffffffffffffffffffffffffffff1614610a3a576040517f08c379a0000000000000000000000000000000000000000000000000000000008152600401610a31906122a1565b60405180910390fd5b610a446000611710565b565b60008060009054906101000a900473ffffffffffffffffffffffffffffffffffffffff16905090565b610a776117d4565b600580811115610a8a57610a89611c0e565b5b600360009054906101000a900460ff166005811115610aac57610aab611c0e565b5b14610aec576040517f08c379a0000000000000000000000000000000000000000000000000000000008152600401610ae3906123c8565b60405180910390fd5b600460025481548110610b0257610b01611fd0565b5b9060005260206000209060020201604051806040016040529081600082018054610b2b90612417565b80601f0160208091040260200160405190810160405280929190818152602001828054610b5790612417565b8015610ba45780601f10610b7957610100808354040283529160200191610ba4565b820191906000526020600020905b815481529060010190602001808311610b8757829003601f168201915b50505050508152602001600182015481525050905090565b600360009054906101000a900460ff1681565b610bd76117d4565b60048281548110610beb57610bea611fd0565b5b9060005260206000209060020201604051806040016040529081600082018054610c1490612417565b80601f0160208091040260200160405190810160405280929190818152602001828054610c4090612417565b8015610c8d5780601f10610c6257610100808354040283529160200191610c8d565b820191906000526020600020905b815481529060010190602001808311610c7057829003601f168201915b505050505081526020016001820154815250509050919050565b610caf611708565b73ffffffffffffffffffffffffffffffffffffffff16610ccd610a46565b73ffffffffffffffffffffffffffffffffffffffff1614610d23576040517f08c379a0000000000000000000000000000000000000000000000000000000008152600401610d1a906122a1565b60405180910390fd5b60036005811115610d3757610d36611c0e565b5b600360009054906101000a900460ff166005811115610d5957610d58611c0e565b5b14610d99576040517f08c379a0000000000000000000000000000000000000000000000000000000008152600401610d9090611ed8565b60405180910390fd5b6004600360006101000a81548160ff02191690836005811115610dbf57610dbe611c0e565b5b02179055507f0a97a4ee45751e2abf3e4fc8946939630b11b371ea8ae39ccdc3056e98f5cc3f60036004604051610df7929190612353565b60405180910390a1565b610e09611708565b73ffffffffffffffffffffffffffffffffffffffff16610e27610a46565b73ffffffffffffffffffffffffffffffffffffffff1614610e7d576040517f08c379a0000000000000000000000000000000000000000000000000000000008152600401610e74906122a1565b60405180910390fd5b60006005811115610e9157610e90611c0e565b5b600360009054906101000a900460ff166005811115610eb357610eb2611c0e565b5b14610ef3576040517f08c379a0000000000000000000000000000000000000000000000000000000008152600401610eea906124bb565b60405180910390fd5b6001600360006101000a81548160ff02191690836005811115610f1957610f18611c0e565b5b02179055507f0a97a4ee45751e2abf3e4fc8946939630b11b371ea8ae39ccdc3056e98f5cc3f60006001604051610f51929190612353565b60405180910390a1565b610f63611708565b73ffffffffffffffffffffffffffffffffffffffff16610f81610a46565b73ffffffffffffffffffffffffffffffffffffffff1614610fd7576040517f08c379a0000000000000000000000000000000000000000000000000000000008152600401610fce906122a1565b60405180910390fd5b60016005811115610feb57610fea611c0e565b5b600360009054906101000a900460ff16600581111561100d5761100c611c0e565b5b1461104d576040517f08c379a00000000000000000000000000000000000000000000000000000000081526004016110449061254d565b60405180910390fd5b6002600360006101000a81548160ff0219169083600581111561107357611072611c0e565b5b02179055507f0a97a4ee45751e2abf3e4fc8946939630b11b371ea8ae39ccdc3056e98f5cc3f600160026040516110ab929190612353565b60405180910390a1565b6110bd611874565b600560003373ffffffffffffffffffffffffffffffffffffffff1673ffffffffffffffffffffffffffffffffffffffff16815260200190815260200160002060000160009054906101000a900460ff1661114c576040517f08c379a000000000000000000000000000000000000000000000000000000000815260040161114390611e46565b60405180910390fd5b600560008373ffffffffffffffffffffffffffffffffffffffff1673ffffffffffffffffffffffffffffffffffffffff1681526020019081526020016000206040518060600160405290816000820160009054906101000a900460ff161515151581526020016000820160019054906101000a900460ff161515151581526020016001820154815250509050919050565b6111e5611708565b73ffffffffffffffffffffffffffffffffffffffff16611203610a46565b73ffffffffffffffffffffffffffffffffffffffff1614611259576040517f08c379a0000000000000000000000000000000000000000000000000000000008152600401611250906122a1565b60405180910390fd5b6002600581111561126d5761126c611c0e565b5b600360009054906101000a900460ff16600581111561128f5761128e611c0e565b5b146112cf576040517f08c379a00000000000000000000000000000000000000000000000000000000081526004016112c6906125df565b60405180910390fd5b60038060006101000a81548160ff021916908360058111156112f4576112f3611c0e565b5b02179055507f0a97a4ee45751e2abf3e4fc8946939630b11b371ea8ae39ccdc3056e98f5cc3f6002600360405161132c929190612353565b60405180910390a1565b61133e611708565b73ffffffffffffffffffffffffffffffffffffffff1661135c610a46565b73ffffffffffffffffffffffffffffffffffffffff16146113b2576040517f08c379a00000000000000000000000000000000000000000000000000000000081526004016113a9906122a1565b60405180910390fd5b600073ffffffffffffffffffffffffffffffffffffffff168173ffffffffffffffffffffffffffffffffffffffff161415611422576040517f08c379a000000000000000000000000000000000000000000000000000000000815260040161141990612671565b60405180910390fd5b61142b81611710565b50565b611436611708565b73ffffffffffffffffffffffffffffffffffffffff16611454610a46565b73ffffffffffffffffffffffffffffffffffffffff16146114aa576040517f08c379a00000000000000000000000000000000000000000000000000000000081526004016114a1906122a1565b60405180910390fd5b600060058111156114be576114bd611c0e565b5b600360009054906101000a900460ff1660058111156114e0576114df611c0e565b5b14611520576040517f08c379a000000000000000000000000000000000000000000000000000000000815260040161151790612703565b60405180910390fd5b60011515600560008373ffffffffffffffffffffffffffffffffffffffff1673ffffffffffffffffffffffffffffffffffffffff16815260200190815260200160002060000160009054906101000a900460ff16151514156115b7576040517f08c379a00000000000000000000000000000000000000000000000000000000081526004016115ae9061276f565b60405180910390fd5b6001600560008373ffffffffffffffffffffffffffffffffffffffff1673ffffffffffffffffffffffffffffffffffffffff16815260200190815260200160002060000160006101000a81548160ff0219169083151502179055507fb6be2187d059cc2a55fe29e0e503b566e1e0f8c8780096e185429350acffd3dd816040516116419190611afd565b60405180910390a150565b6004818154811061165c57600080fd5b906000526020600020906002020160009150905080600001805461167f90612417565b80601f01602080910402602001604051908101604052809291908181526020018280546116ab90612417565b80156116f85780601f106116cd576101008083540402835291602001916116f8565b820191906000526020600020905b8154815290600101906020018083116116db57829003601f168201915b5050505050908060010154905082565b600033905090565b60008060009054906101000a900473ffffffffffffffffffffffffffffffffffffffff169050816000806101000a81548173ffffffffffffffffffffffffffffffffffffffff021916908373ffffffffffffffffffffffffffffffffffffffff1602179055508173ffffffffffffffffffffffffffffffffffffffff168173ffffffffffffffffffffffffffffffffffffffff167f8be0079c531659141344cd1fd0a4f28419497f9722a3daafe3b4186f6b6457e060405160405180910390a35050565b604051806040016040528060608152602001600081525090565b8280546117fa90612417565b90600052602060002090601f01602090048101928261181c5760008555611863565b82601f1061183557805160ff1916838001178555611863565b82800160010185558215611863579182015b82811115611862578251825591602001919060010190611847565b5b5090506118709190611899565b5090565b6040518060600160405280600015158152602001600015158152602001600081525090565b5b808211156118b257600081600090555060010161189a565b5090565b6000604051905090565b600080fd5b600080fd5b6000819050919050565b6118dd816118ca565b81146118e857600080fd5b50565b6000813590506118fa816118d4565b92915050565b600060208284031215611916576119156118c0565b5b6000611924848285016118eb565b91505092915050565b600080fd5b600080fd5b6000601f19601f8301169050919050565b7f4e487b7100000000000000000000000000000000000000000000000000000000600052604160045260246000fd5b61198082611937565b810181811067ffffffffffffffff8211171561199f5761199e611948565b5b80604052505050565b60006119b26118b6565b90506119be8282611977565b919050565b600067ffffffffffffffff8211156119de576119dd611948565b5b6119e782611937565b9050602081019050919050565b82818337600083830152505050565b6000611a16611a11846119c3565b6119a8565b905082815260208101848484011115611a3257611a31611932565b5b611a3d8482856119f4565b509392505050565b600082601f830112611a5a57611a5961192d565b5b8135611a6a848260208601611a03565b91505092915050565b600060208284031215611a8957611a886118c0565b5b600082013567ffffffffffffffff811115611aa757611aa66118c5565b5b611ab384828501611a45565b91505092915050565b600073ffffffffffffffffffffffffffffffffffffffff82169050919050565b6000611ae782611abc565b9050919050565b611af781611adc565b82525050565b6000602082019050611b126000830184611aee565b92915050565b600081519050919050565b600082825260208201905092915050565b60005b83811015611b52578082015181840152602081019050611b37565b83811115611b61576000848401525b50505050565b6000611b7282611b18565b611b7c8185611b23565b9350611b8c818560208601611b34565b611b9581611937565b840191505092915050565b611ba9816118ca565b82525050565b60006040830160008301518482036000860152611bcc8282611b67565b9150506020830151611be16020860182611ba0565b508091505092915050565b60006020820190508181036000830152611c068184611baf565b905092915050565b7f4e487b7100000000000000000000000000000000000000000000000000000000600052602160045260246000fd5b60068110611c4e57611c4d611c0e565b5b50565b6000819050611c5f82611c3d565b919050565b6000611c6f82611c51565b9050919050565b611c7f81611c64565b82525050565b6000602082019050611c9a6000830184611c76565b92915050565b611ca981611adc565b8114611cb457600080fd5b50565b600081359050611cc681611ca0565b92915050565b600060208284031215611ce257611ce16118c0565b5b6000611cf084828501611cb7565b91505092915050565b60008115159050919050565b611d0e81611cf9565b82525050565b606082016000820151611d2a6000850182611d05565b506020820151611d3d6020850182611d05565b506040820151611d506040850182611ba0565b50505050565b6000606082019050611d6b6000830184611d14565b92915050565b600082825260208201905092915050565b6000611d8d82611b18565b611d978185611d71565b9350611da7818560208601611b34565b611db081611937565b840191505092915050565b611dc4816118ca565b82525050565b60006040820190508181036000830152611de48185611d82565b9050611df36020830184611dbb565b9392505050565b7f596f75277265206e6f74206120766f7465722f6f776e65720000000000000000600082015250565b6000611e30601883611d71565b9150611e3b82611dfa565b602082019050919050565b60006020820190508181036000830152611e5f81611e23565b9050919050565b7f566f74696e672073657373696f6e20686176656e74207374617274656420796560008201527f7400000000000000000000000000000000000000000000000000000000000000602082015250565b6000611ec2602183611d71565b9150611ecd82611e66565b604082019050919050565b60006020820190508181036000830152611ef181611eb5565b9050919050565b7f596f75206861766520616c726561647920766f74656400000000000000000000600082015250565b6000611f2e601683611d71565b9150611f3982611ef8565b602082019050919050565b60006020820190508181036000830152611f5d81611f21565b9050919050565b7f50726f706f73616c206e6f7420666f756e640000000000000000000000000000600082015250565b6000611f9a601283611d71565b9150611fa582611f64565b602082019050919050565b60006020820190508181036000830152611fc981611f8d565b9050919050565b7f4e487b7100000000000000000000000000000000000000000000000000000000600052603260045260246000fd5b7f4e487b7100000000000000000000000000000000000000000000000000000000600052601160045260246000fd5b6000612039826118ca565b91507fffffffffffffffffffffffffffffffffffffffffffffffffffffffffffffffff82141561206c5761206b611fff565b5b600182019050919050565b600060408201905061208c6000830185611aee565b6120996020830184611dbb565b9392505050565b7f50726f706f73616c7320617265206e6f7420616c6c6f77656420796574000000600082015250565b60006120d6601d83611d71565b91506120e1826120a0565b602082019050919050565b60006020820190508181036000830152612105816120c9565b9050919050565b50565b600061211c600083611d71565b91506121278261210c565b600082019050919050565b6000602082019050818103600083015261214b8161210f565b9050919050565b6000602082019050818103600083015261216c8184611d82565b905092915050565b7f566f7573206e6520706f7576657a20706173206e65207269656e2070726f706f60008201527f7365720000000000000000000000000000000000000000000000000000000000602082015250565b60006121d0602383611d71565b91506121db82612174565b604082019050919050565b600060208201905081810360008301526121ff816121c3565b9050919050565b6000612211826118ca565b915061221c836118ca565b92508282101561222f5761222e611fff565b5b828203905092915050565b600060208201905061224f6000830184611dbb565b92915050565b7f4f776e61626c653a2063616c6c6572206973206e6f7420746865206f776e6572600082015250565b600061228b602083611d71565b915061229682612255565b602082019050919050565b600060208201905081810360008301526122ba8161227e565b9050919050565b7f43757272656e7420737461747573206973206e6f7420766f74696e672073657360008201527f73696f6e20656e64656400000000000000000000000000000000000000000000602082015250565b600061231d602a83611d71565b9150612328826122c1565b604082019050919050565b6000602082019050818103600083015261234c81612310565b9050919050565b60006040820190506123686000830185611c76565b6123756020830184611c76565b9392505050565b7f566f74657320617265206e6f742074616c6c6965642079657400000000000000600082015250565b60006123b2601983611d71565b91506123bd8261237c565b602082019050919050565b600060208201905081810360008301526123e1816123a5565b9050919050565b7f4e487b7100000000000000000000000000000000000000000000000000000000600052602260045260246000fd5b6000600282049050600182168061242f57607f821691505b60208210811415612443576124426123e8565b5b50919050565b7f5265676973746572696e672070726f706f73616c732063616e7420626520737460008201527f6172746564206e6f770000000000000000000000000000000000000000000000602082015250565b60006124a5602983611d71565b91506124b082612449565b604082019050919050565b600060208201905081810360008301526124d481612498565b9050919050565b7f5265676973746572696e672070726f706f73616c7320686176656e742073746160008201527f7274656420796574000000000000000000000000000000000000000000000000602082015250565b6000612537602883611d71565b9150612542826124db565b604082019050919050565b600060208201905081810360008301526125668161252a565b9050919050565b7f5265676973746572696e672070726f706f73616c73207068617365206973206e60008201527f6f742066696e6973686564000000000000000000000000000000000000000000602082015250565b60006125c9602b83611d71565b91506125d48261256d565b604082019050919050565b600060208201905081810360008301526125f8816125bc565b9050919050565b7f4f776e61626c653a206e6577206f776e657220697320746865207a65726f206160008201527f6464726573730000000000000000000000000000000000000000000000000000602082015250565b600061265b602683611d71565b9150612666826125ff565b604082019050919050565b6000602082019050818103600083015261268a8161264e565b9050919050565b7f566f7465727320726567697374726174696f6e206973206e6f74206f70656e2060008201527f7965740000000000000000000000000000000000000000000000000000000000602082015250565b60006126ed602383611d71565b91506126f882612691565b604082019050919050565b6000602082019050818103600083015261271c816126e0565b9050919050565b7f416c726561647920726567697374657265640000000000000000000000000000600082015250565b6000612759601283611d71565b915061276482612723565b602082019050919050565b600060208201905081810360008301526127888161274c565b905091905056fea26469706673582212206368430b17498375e18bb42d9d93a9c95e2bb2de17a366e554e16fd6bfec4c0264736f6c63430008090033",
  "immutableReferences": {},
  "source": "// SPDX-License-Identifier: MIT\n\npragma solidity ^0.8.9;\nimport \"@openzeppelin/contracts/access/Ownable.sol\";\n\n/** @title A whitelisting voting contract\n    @notice This contract offer a voting system with: \n            - an admin, the contract owner\n            - voters, with registered address by the admin\n            Voters can first submit differents proposal about a topic.\n            In a second time, Voters can vote one time for their favorite proposal \n            The proposal with the most votes will be the adopted solution \n    @author Cyril C. */\ncontract Voting is Ownable {\n\n    // arrays for draw, uint for single\n    // uint[] winningProposalsID;\n    Proposal[] winningProposals;\n\n    /** @notice Store the ID of the most voted proposal \n        @dev will be 0 before 'VoteTailling()' call */\n    uint winningProposalID;\n    \n    /** @notice Define the structure of a Voter\n        @param isRegistered Define if the voter is in the whitelist \n        @dev is false by default, true when added to the whitelist with the function 'registerVoter()'\n        @param hasVoted Define if the voter has voted \n        @dev is false by default, true when the voter voted with 'vote()' \n        @param votedProposalId Store the ID of the voted proposal */\n    struct Voter {\n        bool isRegistered;\n        bool hasVoted;\n        uint votedProposalId;\n    }\n\n    /** @notice Define the structure of a Proposal\n        @param description Store the description the proposal \n        @param voteCount Store the number of voter who voted for the proposal */\n    struct Proposal {\n        string description;\n        uint voteCount;\n    }\n\n    /** @notice Define the states possibilities \n        @param RegisteringVoters State where the admin can add the address as a voter in whitelist \n        @param ProposalRegistrationStarted State where Voter can register a proposal \n        @param ProposalRegistrationEnded State where the admin lock the proposal register \n        @param VotingSessionStarted State where voter can vote for his favorite proposal \n        @param VotingSessionEnded State where admin end the voting session\n        @param VotesTallied State where the votes are counted and the winner is determined */\n    enum  WorkflowStatus {\n        RegisteringVoters,\n        ProposalsRegistrationStarted,\n        ProposalsRegistrationEnded,\n        VotingSessionStarted,\n        VotingSessionEnded,\n        VotesTallied\n    }\n\n    /** @notice Define the current state of the Voting */\n    WorkflowStatus public workflowStatus;\n    Proposal[] public proposalsArray;\n\n    /** @notice Index a 'Voter' to his address */\n    mapping (address => Voter) private voters;\n\n    /** @notice emit when a new voter is registered by the admin\n        @param _voterAddress the address of the registered voter */\n    event VoterRegistered(address _voterAddress);\n    /** @notice emit when the status is changing\n        @param _previousStatus the status before the change\n        @param _newStatus the status after the change */\n    event WorkflowStatusChange(WorkflowStatus _previousStatus, WorkflowStatus _newStatus);\n    /** @notice emit when a new proposal is registered by a voter\n        @param _proposalId the ID of the new proposal */\n    event ProposalRegistered(uint _proposalId);\n    /** @notice emit when a voter is voting \n        @param _voter the address of the voter who voted\n        @param _proposalId the ID of the proposal which got voted */\n    event Voted (address _voter, uint _proposalId);\n\n\n    /** @notice verify if the sender address is registered as a voter */\n    modifier onlyVoters() {\n        require(voters[msg.sender].isRegistered, \"You're not a voter/owner\");\n        _;\n    }\n    \n    // on peut faire un modifier pour les tats\n\n    // ::::::::::::: GETTERS ::::::::::::: //\n\n    /** @notice Returns the voter object of the given address\n        @param _addr the address of the voter */\n    function getVoter(address _addr) external onlyVoters view returns (Voter memory) {\n        return voters[_addr];\n    }\n\n    /** @notice Returns the proposal object of the given ID\n        @param _id the id of the proposal */\n    function getOneProposal(uint _id) external view returns (Proposal memory) {\n        return proposalsArray[_id];\n    }\n\n    /**\n    function getWinners() external view returns (Proposal[] memory) {\n        require(workflowStatus == WorkflowStatus.VotesTallied, 'Votes are not tallied yet');\n        return winningProposals;\n    }\n    */\n\n    /** @notice Returns the informations about proposal winner  */\n    function getWinner() external view returns (Proposal memory) {\n        require(workflowStatus == WorkflowStatus.VotesTallied, 'Votes are not tallied yet');\n        return proposalsArray[winningProposalID];\n    }\n \n    // ::::::::::::: REGISTRATION ::::::::::::: // \n\n    /** @notice Admin can register a voter by calling this function\n        @param _addr the address of the whitelisted voter */\n    function addVoter(address _addr) public onlyOwner {\n        require(workflowStatus == WorkflowStatus.RegisteringVoters, 'Voters registration is not open yet');\n        require(voters[_addr].isRegistered != true, 'Already registered');\n    \n        voters[_addr].isRegistered = true;\n        emit VoterRegistered(_addr);\n    }\n \n    /* facultatif\n     * function deleteVoter(address _addr) external onlyOwner {\n     *   require(workflowStatus == WorkflowStatus.RegisteringVoters, 'Voters registration is not open yet');\n     *   require(voters[_addr].isRegistered == true, 'Not registered.');\n     *   voters[_addr].isRegistered = false;\n     *  emit VoterRegistered(_addr);\n    }*/\n\n    // ::::::::::::: PROPOSAL ::::::::::::: // \n\n    /** @notice Voter can register a new proposal\n        @param _desc the description of the proposal */\n    function addProposal(string memory _desc) external onlyVoters {\n        require(workflowStatus == WorkflowStatus.ProposalsRegistrationStarted, 'Proposals are not allowed yet');\n        require(keccak256(abi.encode(_desc)) != keccak256(abi.encode(\"\")), 'Vous ne pouvez pas ne rien proposer'); // facultatif\n        // voir que desc est different des autres\n\n        Proposal memory proposal;\n        proposal.description = _desc;\n        proposalsArray.push(proposal);\n        emit ProposalRegistered(proposalsArray.length-1);\n    }\n\n    // ::::::::::::: VOTE ::::::::::::: //\n\n    /** @notice Voter can deposit his vote on a proposal \n        @param _id the ID of the proposal */\n    function setVote( uint _id) external onlyVoters {\n        require(workflowStatus == WorkflowStatus.VotingSessionStarted, 'Voting session havent started yet');\n        require(voters[msg.sender].hasVoted != true, 'You have already voted');\n        require(_id <= proposalsArray.length, 'Proposal not found'); // pas oblig, et pas besoin du >0 car uint\n\n        voters[msg.sender].votedProposalId = _id;\n        voters[msg.sender].hasVoted = true;\n        proposalsArray[_id].voteCount++;\n\n        emit Voted(msg.sender, _id);\n    }\n\n    // ::::::::::::: STATE ::::::::::::: //\n\n    /* on pourrait factoriser tout a: par exemple:\n    *  function setWorkflowStatus(WorkflowStatus _num) public onlyOwner {\n    *    WorkflowStatus pnum = workflowStatus;\n    *    workflowStatus = _num;\n    *    emit WorkflowStatusChange(pnum, workflowStatus);\n        } */ \n\n    /** @notice end the whitelisting period of voters by the admin and start the registering proposals period */\n    function startProposalsRegistering() external onlyOwner {\n        require(workflowStatus == WorkflowStatus.RegisteringVoters, 'Registering proposals cant be started now');\n        workflowStatus = WorkflowStatus.ProposalsRegistrationStarted;\n        emit WorkflowStatusChange(WorkflowStatus.RegisteringVoters, WorkflowStatus.ProposalsRegistrationStarted);\n    }\n\n    /** @notice end the proposal register period by the admin */\n    function endProposalsRegistering() external onlyOwner {\n        require(workflowStatus == WorkflowStatus.ProposalsRegistrationStarted, 'Registering proposals havent started yet');\n        workflowStatus = WorkflowStatus.ProposalsRegistrationEnded;\n        emit WorkflowStatusChange(WorkflowStatus.ProposalsRegistrationStarted, WorkflowStatus.ProposalsRegistrationEnded);\n    }\n\n    /** @notice start the vote period by the admin*/\n    function startVotingSession() external onlyOwner {\n        require(workflowStatus == WorkflowStatus.ProposalsRegistrationEnded, 'Registering proposals phase is not finished');\n        workflowStatus = WorkflowStatus.VotingSessionStarted;\n        emit WorkflowStatusChange(WorkflowStatus.ProposalsRegistrationEnded, WorkflowStatus.VotingSessionStarted);\n    }\n\n    /** @notice end the vote period by the admin */\n    function endVotingSession() external onlyOwner {\n        require(workflowStatus == WorkflowStatus.VotingSessionStarted, 'Voting session havent started yet');\n        workflowStatus = WorkflowStatus.VotingSessionEnded;\n        emit WorkflowStatusChange(WorkflowStatus.VotingSessionStarted, WorkflowStatus.VotingSessionEnded);\n    }\n\n    /**\n    function tallyVotesDraw() external onlyOwner {\n       require(workflowStatus == WorkflowStatus.VotingSessionEnded, \"Current status is not voting session ended\");\n        uint highestCount;\n        uint[5]memory winners; // egalite entre 5 personnes max\n        uint nbWinners;\n        for (uint i = 0; i < proposalsArray.length; i++) {\n            if (proposalsArray[i].voteCount == highestCount) {\n                winners[nbWinners]=i;\n                nbWinners++;\n            }\n            if (proposalsArray[i].voteCount > highestCount) {\n                delete winners;\n                winners[0]= i;\n                highestCount = proposalsArray[i].voteCount;\n                nbWinners=1;\n            }\n        }\n        for(uint j=0;j<nbWinners;j++){\n            winningProposalsID.push(winners[j]);\n            winningProposals.push(proposalsArray[winners[j]]);\n        }\n        workflowStatus = WorkflowStatus.VotesTallied;\n        emit WorkflowStatusChange(WorkflowStatus.VotingSessionEnded, WorkflowStatus.VotesTallied);\n    }\n    */\n\n    /** @notice trigger by the admin the vote calculation and define the winner proposal */\n    function tallyVotes() external onlyOwner {\n        require(workflowStatus == WorkflowStatus.VotingSessionEnded, \"Current status is not voting session ended\");\n        uint _winningProposalId;\n        for (uint256 p = 0; p < proposalsArray.length; p++) {\n            if (proposalsArray[p].voteCount > proposalsArray[_winningProposalId].voteCount) {\n                _winningProposalId = p;\n            }\n        }\n\n        winningProposalID = _winningProposalId;\n\n        workflowStatus = WorkflowStatus.VotesTallied;\n        emit WorkflowStatusChange(WorkflowStatus.VotingSessionEnded, WorkflowStatus.VotesTallied);\n    }\n}",
  "sourcePath": "/Users/snow/Documents/Dev/Developpeur-Ethereum-Template/6. Dapp/Defis/3 - dApp/contracts/Voting.sol",
  "compiler": {
    "name": "solc",
    "version": "0.8.9+commit.e5eed63a.Emscripten.clang"
  },
  "schemaVersion": "3.4.3",
  "updatedAt": "2021-11-27T02:15:33.186Z",
  "networkType": "ethereum",
  "devdoc": {
    "author": "Cyril C. ",
    "events": {
      "ProposalRegistered(uint256)": {
        "params": {
          "_proposalId": "the ID of the new proposal "
        }
      },
      "Voted(address,uint256)": {
        "params": {
          "_proposalId": "the ID of the proposal which got voted ",
          "_voter": "the address of the voter who voted"
        }
      },
      "VoterRegistered(address)": {
        "params": {
          "_voterAddress": "the address of the registered voter "
        }
      },
      "WorkflowStatusChange(uint8,uint8)": {
        "params": {
          "_newStatus": "the status after the change ",
          "_previousStatus": "the status before the change"
        }
      }
    },
    "kind": "dev",
    "methods": {
      "addProposal(string)": {
        "params": {
          "_desc": "the description of the proposal "
        }
      },
      "addVoter(address)": {
        "params": {
          "_addr": "the address of the whitelisted voter "
        }
      },
      "getOneProposal(uint256)": {
        "params": {
          "_id": "the id of the proposal "
        }
      },
      "getVoter(address)": {
        "params": {
          "_addr": "the address of the voter "
        }
      },
      "owner()": {
        "details": "Returns the address of the current owner."
      },
      "renounceOwnership()": {
        "details": "Leaves the contract without owner. It will not be possible to call `onlyOwner` functions anymore. Can only be called by the current owner. NOTE: Renouncing ownership will leave the contract without an owner, thereby removing any functionality that is only available to the owner."
      },
      "setVote(uint256)": {
        "params": {
          "_id": "the ID of the proposal "
        }
      },
      "transferOwnership(address)": {
        "details": "Transfers ownership of the contract to a new account (`newOwner`). Can only be called by the current owner."
      }
    },
    "stateVariables": {
      "winningProposalID": {
        "details": "will be 0 before 'VoteTailling()' call "
      }
    },
    "title": "A whitelisting voting contract",
    "version": 1
  },
  "userdoc": {
    "events": {
      "ProposalRegistered(uint256)": {
        "notice": "emit when a new proposal is registered by a voter"
      },
      "Voted(address,uint256)": {
        "notice": "emit when a voter is voting "
      },
      "VoterRegistered(address)": {
        "notice": "emit when a new voter is registered by the admin"
      },
      "WorkflowStatusChange(uint8,uint8)": {
        "notice": "emit when the status is changing"
      }
    },
    "kind": "user",
    "methods": {
      "addProposal(string)": {
        "notice": "Voter can register a new proposal"
      },
      "addVoter(address)": {
        "notice": "Admin can register a voter by calling this function"
      },
      "endProposalsRegistering()": {
        "notice": "end the proposal register period by the admin "
      },
      "endVotingSession()": {
        "notice": "end the vote period by the admin "
      },
      "getOneProposal(uint256)": {
        "notice": "Returns the proposal object of the given ID"
      },
      "getVoter(address)": {
        "notice": "Returns the voter object of the given address"
      },
      "getWinner()": {
        "notice": "Returns the informations about proposal winner  "
      },
      "setVote(uint256)": {
        "notice": "Voter can deposit his vote on a proposal "
      },
      "startProposalsRegistering()": {
        "notice": "end the whitelisting period of voters by the admin and start the registering proposals period "
      },
      "startVotingSession()": {
        "notice": "start the vote period by the admin"
      },
      "tallyVotes()": {
        "notice": "trigger by the admin the vote calculation and define the winner proposal "
      },
      "workflowStatus()": {
        "notice": "Define the current state of the Voting "
      }
    },
    "notice": "This contract offer a voting system with:  - an admin, the contract owner - voters, with registered address by the admin Voters can first submit differents proposal about a topic. In a second time, Voters can vote one time for their favorite proposal  The proposal with the most votes will be the adopted solution ",
    "version": 1
  }
}