{
  "contractName": "SimpleStorage",
  "abi": [
    {
      "inputs": [],
      "stateMutability": "nonpayable",
      "type": "constructor"
    },
    {
      "anonymous": false,
      "inputs": [
        {
          "indexed": false,
          "internalType": "uint256",
          "name": "_data",
          "type": "uint256"
        },
        {
          "indexed": false,
          "internalType": "address",
          "name": "_address",
          "type": "address"
        }
      ],
      "name": "DataStored",
      "type": "event"
    },
    {
      "inputs": [
        {
          "internalType": "uint256",
          "name": "_x",
          "type": "uint256"
        }
      ],
      "name": "set",
      "outputs": [],
      "stateMutability": "nonpayable",
      "type": "function"
    },
    {
      "inputs": [],
      "name": "get",
      "outputs": [
        {
          "internalType": "uint256",
          "name": "",
          "type": "uint256"
        }
      ],
      "stateMutability": "view",
      "type": "function",
      "constant": true
    },
    {
      "inputs": [],
      "name": "returnOwner",
      "outputs": [
        {
          "internalType": "address",
          "name": "",
          "type": "address"
        }
      ],
      "stateMutability": "view",
      "type": "function",
      "constant": true
    }
  ],
  "bytecode": "0x608060405234801561001057600080fd5b5033600160006101000a81548173ffffffffffffffffffffffffffffffffffffffff021916908373ffffffffffffffffffffffffffffffffffffffff160217905550610364806100616000396000f3fe608060405234801561001057600080fd5b506004361061005e576000357c01000000000000000000000000000000000000000000000000000000009004806360fe47b1146100635780636d4ce63c1461007f57806394a927fe1461009d575b600080fd5b61007d600480360381019061007891906101af565b6100bb565b005b610087610141565b60405161009491906101eb565b60405180910390f35b6100a561014a565b6040516100b29190610247565b60405180910390f35b600081116100fe576040517f08c379a00000000000000000000000000000000000000000000000000000000081526004016100f5906102e5565b60405180910390fd5b806000819055507fad78bd60223e723bf7bdc74c7dfda6b62da93a84d5765178bc8a8ec6a365376e8133604051610136929190610305565b60405180910390a150565b60008054905090565b6000600160009054906101000a900473ffffffffffffffffffffffffffffffffffffffff16905090565b600080fd5b6000819050919050565b61018c81610179565b811461019757600080fd5b50565b6000813590506101a981610183565b92915050565b6000602082840312156101c5576101c4610174565b5b60006101d38482850161019a565b91505092915050565b6101e581610179565b82525050565b600060208201905061020060008301846101dc565b92915050565b600073ffffffffffffffffffffffffffffffffffffffff82169050919050565b600061023182610206565b9050919050565b61024181610226565b82525050565b600060208201905061025c6000830184610238565b92915050565b600082825260208201905092915050565b7f766f7573206e6520706f7576657a20706173206d657474726520756e6520766160008201527f6c657572206e756c6c6500000000000000000000000000000000000000000000602082015250565b60006102cf602a83610262565b91506102da82610273565b604082019050919050565b600060208201905081810360008301526102fe816102c2565b9050919050565b600060408201905061031a60008301856101dc565b6103276020830184610238565b939250505056fea2646970667358221220f64d254426a25c32c2c13605cc634182bbb668bbb06bdfbd504a8991d59de4e164736f6c634300080e0033",
  "immutableReferences": {},
  "source": "// SPDX-License-Identifier: MIT\npragma solidity ^0.8.14;\n\ncontract SimpleStorage {\n    uint data;\n    address owner;\n    event DataStored(uint _data, address _address);\n    \n    constructor() {\n        owner = msg.sender;\n    }\n\n    function set(uint _x) public {\n        require(_x > 0, \"vous ne pouvez pas mettre une valeur nulle\");\n        data = _x;\n        emit DataStored(_x, msg.sender);\n    }\n    \n    function get() public view returns (uint) {\n        return data;\n    }\n\n    function returnOwner() public view returns (address) {\n        return owner;\n    }\n}",
  "sourcePath": "/home/vic/Web3/Developpeur-Ethereum-Template/4. Truffle & CI-CD/4.Truffle_TDD/contracts/SimpleStorage.sol",
  "compiler": {
    "name": "solc",
    "version": "0.8.14+commit.80d49f37.Emscripten.clang"
  },
  "schemaVersion": "3.4.7",
  "updatedAt": "2022-06-23T09:08:52.141Z",
  "networkType": "ethereum",
  "devdoc": {
    "kind": "dev",
    "methods": {},
    "version": 1
  },
  "userdoc": {
    "kind": "user",
    "methods": {},
    "version": 1
  }
}